S0220000556172745F416E645F54696D65725F496E746572727570745F312E73726563D8
S113000071C000008EC000008CC000008AC00000D7
S113001088C0000086C0000084C0000082C00000C8
S113002080C000007EC000007CC000007AC00000D8
S113003078C0000076C0000074C0000072C00000E8
S113004070C000006EC000006CC000006AC00000F8
S113005068C0000066C0000064C000005AC200000E
S113006060C000005EC000005CC000005AC0000018
S113007058C0000056C0000054C0000052C0000028
S113008050C000004EC000004CC000004AC0000038
S1130090FEC2000046C0000044C0000042C0000090
S11300A040C000003EC000003CC000003AC0000058
S11300B038C0000036C0000034C0000032C0000068
S11300C030C000002EC000002CC000002AC0000078
S11300D028C0000026C0000024C0000022C0000088
S11300E020C0000011241FBECFEFD1E2DEBFCDBF80
S11300F000E00CBF12E0A0E0B2E0EAEBFFE000E0B9
S11301000BBF02C007900D92A43BB107D9F722E0C0
S1130110A4EBB2E001C01D92AD3CB207E1F7DED022
S11301204AC76ECFCF93DF9300D01F92CDB7DEB70F
S11301309C838B838B819C8119D79A838983898142
S11301409A810F900F900F900F90DF91CF910895A7
S1130150CF93DF9300D01F92CDB7DEB79A83898304
S11301607C836B8389819A812B813C81B90111D76E
S113017000000F900F900F900F90DF91CF91089592
S1130180CF93DF93CDB7DEB729970FB6F894DEBFD0
S11301900FBECDBF9987888788859985FC018081AA
S11301A0882F90E0C0970A97A8F48091B402853014
S11301B088F48091B40291E0980F9093B402882F50
S11301C090E028853985F901208185549D4FFC01F3
S11301D020834DC088859985FC0180818A3309F08C
S11301E03DC08091B402282F30E0CE010296A901CF
S11301F06BEB72E0D9D38091B402882F90E09E011A
S11302002E5F3F4F820F931FFC011082CE01029696
S11302104AE050E060E070E0B5D2DC01CB0190939D
S1130220C4028093C3021092B40219820AC0898165
S1130230882F90E085549D4FFC01108289818F5F47
S113024089838981853098F38091C3029091C40297
S1130250892B69F081E08093B60209C081E0809324
S1130260B50288859985FC0180818093C2020000D3
S113027029960FB6F894DEBF0FBECDBFDF91CF91A4
S11302800895CF93DF9300D000D0CDB7DEB79E831F
S11302908D838D819E819C0140E050E084ED93E04C
S11302A0DC0157D2DC01CB0189839A83AB83BC8305
S11302B089819A81AB81BC8128EE33E040E050E033
S11302C0BC01CD0124D2DA01C90126960FB6F894F7
S11302D0DEBF0FBECDBFDF91CF910895CF93DF93E3
S11302E0CDB7DEB784E290E024E230E0F90120816A
S11302F02D60FC01208380E090E014DF9093C40221
S11303008093C3028091C3029091C402892B31F07F
S11303108091C3029091C402019631F488EE93E077
S11303209093C4028093C3028091C3029091C4024B
S1130330A8DF9093C1028093C00233D18091C002A0
S11303409091C10297D0C3D057D18091C3029091AC
S1130350C402292F2F938F9380E392E0892F8F93E8
S113036080E392E08F932FD30F900F900F900F9014
S113037078948091B5028823A9F01092B5028091F7
S1130380C202882F90E0292F2F938F9384E592E067
S1130390892F8F9384E592E08F9315D30F900F905C
S11303A00F900F908091B602882319F31092B60231
S11303B08091C3029091C402292F2F938F938BE8CD
S11303C092E0892F8F938BE892E08F93FCD20F9069
S11303D00F900F900F908091C3029091C40251DF4F
S11303E09093C1028093C0022091C3023091C40251
S11303F080E090E0B901ACDE7BD08091C0029091A6
S1130400C10238D064D0B5CFCF93DF9300D0CDB73D
S1130410DEB79B838A8319828981882F90E0880FB5
S1130420991F880F991F80509E4FFC0120813181B4
S11304308A819B812817390769F48981882F90E084
S1130440880F991F880F991F8E5F9D4FFC01808133
S113045091810AC089818F5F898389818530E0F227
S113046080910202909103020F900F900F90DF9100
S1130470CF910895CF93DF931F921F92CDB7DEB72C
S11304809A83898386E490E0FC01108284E490E0FE
S1130490FC01108285E390E0FC01108280E490E08E
S11304A0B3DF482F85E490E025E430E0F9012081B2
S11304B0242BFC01208389819A819093B802809334
S11304C0B70200000F900F90DF91CF910895CF9362
S11304D0DF93CDB7DEB78EE690E02EE630E0F9018B
S11304E020812160FC0120830000DF91CF910895D9
S11304F0CF93DF93CDB7DEB78EE690E02EE630E003
S1130500F90120812E7FFC0120830000DF91CF912F
S113051008951F920F9200905F000F921124009093
S11305205B000F922F933F938F939F93EF93FF93CF
S1130530CF93DF93CDB7DEB78091B9029091BA0221
S113054001969093BA028093B9022091B902309136
S1130550BA028091B7029091B8022817390770F057
S113056085E290E025E230E0F901308124E02327A0
S1130570FC0120831092BA021092B9027894000010
S1130580DF91CF91FF91EF919F918F913F912F91A7
S11305900F9000925B000F9000925F000F901F90ED
S11305A01895CF93DF93CDB7DEB78CEC90E027E6B8
S11305B0FC0120838DEC90E0FC01108288EC90E03B
S11305C0FC01108289EC90E028E1FC0120838AEC94
S11305D090E026E0FC01208384E192E09093C8023D
S11305E08093C70282E292E09093C6028093C50290
S11305F00000DF91CF910895CF93DF93CDB7DEB79D
S113060089EC90E029EC30E0F90120812068FC01BC
S113061020830000DF91CF910895CF93DF931F9241
S11306201F92CDB7DEB79A838983000088EC90E0EF
S1130630FC0180818823D4F78EEC90E0FC0180815A
S1130640882F90E00F900F90DF91CF910895CF9372
S1130650DF9300D0CDB7DEB789837B836A83000044
S113066088EC90E0FC018081882F90E080729927CB
S1130670892BB1F38EEC90E02981FC01208380E08A
S113068090E00F900F900F90DF91CF9108951F92FB
S11306900F9200905F000F92112400905B000F9264
S11306A02F933F934F935F936F937F938F939F9376
S11306B0AF93BF93EF93FF93CF93DF931F92CDB785
S11306C0DEB78EEC90E0FC0180818983CE01019637
S11306D057DD8EEC90E02981FC01208300000F900F
S11306E0DF91CF91FF91EF91BF91AF919F918F9146
S11306F07F916F915F914F913F912F910F90009255
S11307005B000F9000925F000F901F901895A1E27C
S11307101A2EAA1BBB1BFD010DC0AA1FBB1FEE1F77
S1130720FF1FA217B307E407F50720F0A21BB30BC2
S1130730E40BF50B661F771F881F991F1A9469F73E
S113074060957095809590959B01AC01BD01CF019A
S1130750089509D0A59F900DB49F900DA49F800D7E
S1130760911D11240895A29FB001B39FC001A39FBE
S1130770700D811D1124911DB29F700D811D1124D6
S1130780911D08953F924F925F926F927F928F9244
S11307909F92AF92BF92CF92DF92EF92FF920F930C
S11307A01F93CF93DF935C016B017A01611571058F
S11307B019F0FB0191838083E114F10429F0C7014E
S11307C00297839708F0C6C0E5012196F5011081D0
S11307D0812F90E0E1D0892B11F05E01F5CF1D321D
S11307E029F42196F501118101E007C01B3221F49F
S11307F0E5012296F501118100E0E114F104B1F064
S1130800F0E1EF16F10429F4AEC010E3E114F104B1
S113081001F12AE0E216F104A9F180E1E816F104FD
S113082071F0E8E0EE16F104F1F413C0103339F579
S113083088818F7D883549F7198122960260F0E11D
S1130840EF2EF12C88248A94982CA82CAFE0BA2E91
S11308501FC078E0E72EF12C88248A94982CA82CC9
S1130860EFE1BE2E15C06FEF7FEFCB0197010F2C88
S1130870000C440B550B4BDF49015A0109C08AE0B7
S1130880E82EF12C69E9862E982CA82C69E1B62E65
S113089040E060E070E0CB0127010F2C000C6608FB
S11308A07708FE0150ED352E310E29E0231570F442
S11308B02FEB210F2A3118F439EC332E06C02FE91F
S11308C0210F2A3128F529EA322E310E232D30E06A
S11308D02E153F05ECF44F3FC1F086169706A80687
S11308E0B90680F0A301920157D3232D30E040E0F4
S11308F050E0620F731F841F951F621773078407EC
S1130900950710F44FEF01C041E021961081C9CF43
S1130910C114D10451F0442311F0219703C001FF05
S113092004C02297F601D183C08300FF07C09095CD
S11309308095709561957F4F8F4F9F4F4F3F79F40E
S113094082E290E09093CC028093CB023FEF2FEFB2
S11309509FEF0DC040E030E020E090E008C0462F5B
S1130960372F282F04C0103309F069CF61CF642FCB
S1130970732F822FDF91CF911F910F91FF90EF90F2
S1130980DF90CF90BF90AF909F908F907F906F90AB
S11309905F904F903F900895911125C2803219F0D5
S11309A089508550D0F70895FB01DC014150504037
S11309B048F001900D920020C9F701C01D924150EA
S11309C05040E0F70895CF93DF93CDB7DEB7AE0183
S11309D04A5F5F4FFA0161917191AF018091C70243
S11309E09091C80203D0DF91CF9108952F923F9246
S11309F04F925F926F927F928F929F92AF92BF922B
S1130A00CF92DF92EF92FF920F931F93CF93DF93D6
S1130A10CDB7DEB72B970FB6F894DEBF0FBECDBFB0
S1130A206C017B018A01FC0117821682838181FF9C
S1130A30BFC1CE0101963C01F6019381F70193FDFC
S1130A40859193FF81917F01882309F4ADC185329B
S1130A5039F493FD859193FF81917F01853221F4CF
S1130A60B60190E0D9D1E8CF912C212C312CFFE1B3
S1130A70F315D8F08B3279F038F4803279F0833280
S1130A80A1F4232D20611DC08D3261F0803369F4FF
S1130A90232D216016C0832D8260382EE32DE4605F
S1130AA03E2E2AC0F32DF8601DC037FC2DC020ED6A
S1130AB0280F2A3040F08E32B9F436FC75C1232D4C
S1130AC02064322E19C036FE06C08AE0989E200D9E
S1130AD01124922E11C0EAE02E9E200D1124222E04
S1130AE0F32DF0623F2E08C08C3621F4832D8068EC
S1130AF0382E02C0883641F4F70193FD859193FFA7
S1130B0081917F018111B3CF982F9F7D95549330AC
S1130B1028F40C5F1F4F9FE399830DC0833631F097
S1130B20833771F0833509F055C020C0F801808106
S1130B3089830E5F1F4F88248394912C530112C024
S1130B402801F2E04F0E511CF801A080B18036FE5E
S1130B5003C0692D70E002C06FEF7FEFC50151D172
S1130B604C018201F32DFF773F2E15C0280122E0AE
S1130B70420E511CF801A080B18036FE03C0692DDD
S1130B8070E002C06FEF7FEFC50130D14C01F32D4F
S1130B90F0683F2E820133FC19C0822D90E0881644
S1130BA09906A0F4B60180E290E036D12A94F5CFFC
S1130BB0F50137FC859137FE81915F01B60190E024
S1130BC02BD121102A9421E0821A910881149104D6
S1130BD079F7E1C0843611F0893639F5F80137FE2A
S1130BE007C060817181828193810C5F1F4F08C0AF
S1130BF060817181072E000C880B990B0E5F1F4FCB
S1130C00F32DFF763F2E97FF09C090958095709540
S1130C1061957F4F8F4F9F4FF0683F2E2AE030E061
S1130C20A30136D1882E861844C0853731F4232D8C
S1130C302F7EB22E2AE030E025C0932D997FB92E65
S1130C408F36C1F018F4883579F0AEC0803719F0CA
S1130C50883721F0A9C0E92FE061BE2EB4FE0DC093
S1130C60FB2DF460BF2E09C034FE0AC0292F266074
S1130C70B22E06C028E030E005C020E130E002C01A
S1130C8020E132E0F801B7FE07C060817181828102
S1130C9093810C5F1F4F06C06081718180E090E0FA
S1130CA00E5F1F4FA301F4D0882E8618FB2DFF770B
S1130CB03F2E36FE0DC0232D2E7FA22E891458F40C
S1130CC034FE0BC032FC09C0832D8E7EA82E05C0D5
S1130CD0B82CA32C03C0B82C01C0B92CA4FE0FC09F
S1130CE0FE01E80DF11D8081803321F49A2D997E57
S1130CF0A92E09C0A2FE06C0B394B39404C08A2DE1
S1130D00867809F0B394A3FC10C0A0FE06C0B21408
S1130D1080F4280C922C9B180DC0B21458F4B60120
S1130D2080E290E079D0B394F8CFB21418F42B1881
S1130D3002C0982C212CA4FE0FC0B60180E390E0E1
S1130D406BD0A2FE16C0A1FC03C088E790E002C0ED
S1130D5088E590E0B6010CC08A2D867851F0A1FE9A
S1130D6002C08BE201C080E2A7FC8DE2B60190E0F4
S1130D7053D0891430F4B60180E390E04DD09A94B6
S1130D80F8CF8A94F301E80DF11D8081B60190E05B
S1130D9043D08110F6CF222009F44ECEB60180E272
S1130DA090E03AD02A94F7CFF6018681978102C069
S1130DB08FEF9FEF2B960FB6F894DEBF0FBECDBF1B
S1130DC0DF91CF911F910F91FF90EF90DF90CF9023
S1130DD0BF90AF909F908F907F906F905F904F9057
S1130DE03F902F900895992788270895FC01059036
S1130DF0615070400110D8F7809590958E0F9F1F19
S1130E000895FC016150704001900110D8F780955D
S1130E1090958E0F9F1F08950F931F93CF93DF9389
S1130E20FB01238121FD03C08FEF9FEF2CC022FF24
S1130E3016C046815781248135814217530744F4F3
S1130E40A081B1819D012F5F3F4F318320838C931B
S1130E50268137812F5F3F4F3783268314C08B0150
S1130E60EC01FB010084F185E02D1995892BE1F655
S1130E70D80116968D919C911797019617969C937D
S1130E808E931697CE01DF91CF911F910F91089504
S1130E90FA01AA27283051F1203181F1E8946F93A7
S1130EA06E7F6E5F7F4F8F4F9F4FAF4FB1E03ED04D
S1130EB0B4E03CD0670F781F891F9A1FA11D680FEB
S1130EC0791F8A1F911DA11D6A0F711D811D911D1E
S1130ED0A11D20D009F468943F912AE0269F112493
S1130EE03019305D3193DEF6CF010895462F4770F7
S1130EF0405D4193B3E00FD0C9F7F6CF462F4F7052
S1130F00405D4A3318F0495D31FD4052419302D0AF
S1130F10A9F7EACFB4E0A695979587957795679555
S1130F20BA95C9F700976105710508959B01AC0155
S1130F300A2E06945795479537952795BA95C9F77C
S1130F40620F731F841F951FA01D0895DC01CB0140
S1130F50FC01F999FECF06C0F2BDE1BDF89A3196C5
S1130F6000B40D9241505040B8F70895A8E1B0E0A4
S1130F7042E050E0EDCF262FF999FECF1FBA92BD83
S1130F8081BD20BD0FB6F894FA9AF99A0FBE019666
S1130F900895F1DF272FF0CFDB018F939F93D9DBE7
S1130FA0BF91AF91A29F800D911DA39F900DB29F01
S10D0FB0900D11240895F894FFCF6A
S1130FBA01000100080002004000030000010400CF
S1130FCA00040500000000020000000027030000DE
S1130FDA0000000000010000000000000D030000F2
S1130FEA5468652054696D657220496E746572721D
S1130FFA7570742056616C7565206973203A2025D2
S113100A646D73002563206973206E6F74206120F8
S113101A76616C6964206368617261637465722EB7
S113102A20547970652066726F6D207374617274CE
S113103A20616761696E2021212100546865206E50
S113104A65772054696D657220496E74657272758C
S113105A70742056616C7565206973203A20256482
S107106A6D7300009E
S9030000FC
